:100000000C94340018950000189500001895000015
:10001000189500001895000018950000189500002C
:10002000189500001895000018950000189500001C
:10003000189500001895000018950000189500000C
:1000400018950000189500001895000018950000FC
:1000500018950000189500001895000018950000EC
:1000600018950000189500008FEF8DBFC0EEE6ECEC
:100070004E2E84E08EBFD4E0F4E05F2EA89584B7C6
:10008000082E877F84BF88E1992780936000909332
:100090006000EEEFF3E0A0E0B1E088278D933197A8
:1000A000E9F70E94051666243D9A3B9A3C9A3A9AD3
:1000B0008FEF9FEFAAE2B1E08D939C9386E990E0E9
:1000C000A2E1B1E08D939C9380E293E0A4E1B1E0E2
:1000D0008D939C93429A0E94F1140E94131580E024
:1000E00080930D018FEB11E00E94F915EAE0F9E32E
:1000F0000E94E31582E390E00E94BD160E94F00189
:10010000ADE0B1E08C918F5F8C9300910D010B33CA
:1001100018F011F00C948E000C9490000C947A005E
:1001200000910A01003110F00C9498000C94170112
:100130000E94F00100910A01003110F00C94A2001D
:100140000C9417018CE291E00E94BD160E942915C3
:100150008FE711E00E94F915ECE1F9E30E94E31545
:10016000A6E0B1E08C91AEEAB4E00E9474160E9461
:10017000DB15E4E2F9E30E94E315A7E0B1E08C911E
:10018000AEEAB4E00E9474160E94DB15E6E2F9E3E1
:100190000E94E3158FEB11E00E94F915ECE2F9E300
:1001A0000E94E315A0E0B1E08C91AEEAB4E00E94B9
:1001B00074160E94DB15E4E3F9E30E94E315A1E065
:1001C000B1E08C91AEEAB4E00E9474160E94DB1597
:1001D000E4E3F9E30E94E315A2E0B1E08C91AEEA1A
:1001E000B4E00E9474160E94DB15E6E3F9E30E9476
:1001F000E3150E94F00100910A01003110F00C9407
:1002000003010C9417018CE291E00E94BD160E943C
:10021000F00100910A01003110F00C9411010C94CE
:1002200017018CE291E00E94BD160C9498000E9488
:100230004B0A8FE711E00E94F915EAE3F9E30E9407
:10024000E3158FEB11E00E94F915ECE4F9E30E944D
:10025000E3150E94A20100910A01003081E008F438
:1002600080E08F9300910A01043081E008F080E083
:100270009F918923882311F40C9440010E94EA1570
:1002800000910A010C3011F00C944A010C942011D9
:100290000C94A001043011F00C9452010C94A001B4
:1002A0000C94A001033011F00C945A010C944D03EE
:1002B0000C94A001023011F00C9462010C947906A8
:1002C0000C94A001013011F00C946A010C941302FB
:1002D0000C94A001003011F00C9472010C94AA024D
:1002E0000C94A00100910A01053081E008F480E03F
:1002F0008F9300910A010B3081E010F009F080E04B
:100300009F918923882311F40C948A010C9417017E
:100310000C94A00100910A010D3081E008F480E006
:100320008F9300910A010F3081E010F009F080E016
:100330009F918923882311F40C94A0010C94170138
:100340000C94A6008DE00E9453160E949616AAE017
:10035000B1E00C930E949616AFE0B1E00C930E94BE
:100360009616A0E1B1E00C9340910F0100910A01B3
:10037000041781E009F080E08F9340911001009113
:100380000A01041781E009F080E09F918923882306
:1003900011F40C94D00181E0809311010C94D301ED
:1003A00080E08093110100910A01003181E009F0A1
:1003B00080E08F9300911101003081E009F080E02E
:1003C0009F91892B882311F40C94E8010C94A501CA
:1003D0000E94FE010E944B0A8CE00E945316089571
:1003E0000E949616AAE0B1E00C9300910A01003138
:1003F00010F00C94FD010E94FE0108953A9AA4E1C8
:10040000B1E0ED91FC91A2E1B1E08D919C91019759
:10041000429A0E94891642980E948916482F492BB9
:10042000B1F7429A08958FE711E00E94F915EEE5C1
:10043000F9E30E94E3150E943E0A8FEB11E00E944F
:10044000F915AEEAB4E0EBE0F1E00E94A5190E94D4
:10045000DB1594E0ABE0B1E00E94E01780910B0166
:10046000809300010E943E0AAEEAB4E0EBE0F1E0C6
:100470000E94A5190E94DB15E4E3F9E30E94E3154D
:100480000091000140910B01040FA0E0B1E00C933A
:100490000E943E0AAEEAB4E0EBE0F1E00E94A5194A
:1004A0000E94DB1594E0ABE0B1E00E94E017809180
:1004B0000B01809301010E943E0AAEEAB4E0EBE03A
:1004C000F1E00E94A5190E94DB1500910101409105
:1004D0000B01040FA1E0B1E00C935A924A92809173
:1004E0000001A42DB52D8C9381E00E94CC175A9267
:1004F0004A9280910101A42DB52D8C9381E00E9438
:10050000CC175A924A9280E0A42DB52D8C9381E0AD
:100510000E94CC175A924A9280910301A42DB52DC6
:100520008C9381E00E94CC175A924A9280910401E8
:10053000A42DB52D8C9381E00E94CC170E945215FA
:100540002A9685E00E9490158AE090E00E94BD16F0
:100550000C94A0018FE711E00E94F915E0E7F9E3A0
:100560000E94E3150E943E0A00910B01093018F029
:1005700011F00C94BD020C94BF020C94A0018FEBFF
:1005800011E00E94F915AEEAB4E0EBE0F1E00E9460
:10059000A5190E94DB1594E0ABE0B1E00E94E017E2
:1005A00080910B01809303010E943E0AAEEAB4E001
:1005B000EBE0F1E00E94A5190E94DB15E2E8F9E307
:1005C0000E94E3150091030140910B01040FA3E089
:1005D000B1E00C930E943E0AAEEAB4E0EBE0F1E039
:1005E0000E94A5190E94DB1594E0ABE0B1E00E94E7
:1005F000E01780910B01809304010E943E0AAEEA4D
:10060000B4E0EBE0F1E00E94A5190E94DB15009137
:10061000040140910B01040FA4E0B1E00C935A9245
:100620004A9280910001A42DB52D8C9381E00E9407
:10063000CC175A924A9280910101A42DB52D8C932A
:1006400081E00E94CC175A924A9280910201A42D17
:10065000B52D8C9381E00E94CC175A924A928091DA
:100660000301A42DB52D8C9381E00E94CC175A92E2
:100670004A9280910401A42DB52D8C9381E00E94B3
:10068000CC170E9452152A9685E00E9490158AE0A8
:1006900090E00E94BD160C94A001AAE1B1E0EEE347
:1006A000F8E30E947D19A2E2B1E0EEE3F8E30E94D4
:1006B0007D19AEE1B1E0EEE3F8E30E947D198FE72A
:1006C00011E00E94F915E4E8F9E30E94E3150E94A5
:1006D0003E0A00910B01093018F011F00C947203DE
:1006E0000C9474030C94A0018FEB11E00E94F91597
:1006F000AEEAB4E0EBE0F1E00E94A5190E94DB1540
:1007000094E0ABE0B1E00E94E017EBE0F1E0D080D4
:10071000EE24FF2400270E941618AEE1B1E00E94EB
:1007200048180E943E0AAEEAB4E0EBE0F1E00E9415
:10073000A5190E94DB15E2E8F9E30E94E315EBE05E
:10074000F1E0D080EE24FF2400270E9416180E94BA
:100750004D18EEE1F1E00E94F2170E94FF18EDE063
:10076000F0E0AEE1B1E00E94EF190E943E0AAEEA6D
:10077000B4E0EBE0F1E00E94A5190E94DB1594E0E3
:10078000ABE0B1E00E94E017EBE0F1E0D080EE24B6
:10079000FF2400270E941618A2E2B1E00E94481828
:1007A0000E943E0AAEEAB4E0EBE0F1E00E94A51937
:1007B0000E94DB15EBE0F1E0D080EE24FF2400275F
:1007C0000E9416180E944D18E2E2F1E00E94F21712
:1007D0000E94FF18EDE0F0E0A2E2B1E00E94EF1904
:1007E00094E0ABE0B1E00E94E017EEE1F1E00E949E
:1007F000F217E2E4F8E30E945A190E94631910F418
:100800000C941404E6E4F8E30E945A19EEE1F1E0D6
:100810000E94F2170E94F018EDE0F0E0AEE1B1E0C6
:100820000E94EF190C940A05EEE1F1E00E94F21724
:10083000EAE4F8E30E945A190E94631910F40C9438
:100840003304EEE4F8E30E945A19EEE1F1E00E946D
:10085000F2170E94F018EDE0F0E0AEE1B1E00E9486
:10086000EF190C940A05EEE1F1E00E94F217E2E5BF
:10087000F8E30E945A190E94631910F40C94520470
:10088000E6E5F8E30E945A19EEE1F1E00E94F21762
:100890000E94F018EDE0F0E0AEE1B1E00E94EF1947
:1008A0000C940A05EEE1F1E00E94F217EAE5F8E3A4
:1008B0000E945A190E94631910F40C947104EEE519
:1008C000F8E30E945A19EEE1F1E00E94F2170E944B
:1008D000F018EDE0F0E0AEE1B1E00E94EF190C9409
:1008E0000A05EEE1F1E00E94F217E2E6F8E30E9469
:1008F0005A190E94631910F40C949004E6E6F8E388
:100900000E945A19EEE1F1E00E94F2170E94F018DD
:10091000EDE0F0E0AEE1B1E00E94EF190C940A05C1
:10092000EEE1F1E00E94F217EAE6F8E30E945A19BC
:100930000E94631910F40C94AF04EEE6F8E30E94F1
:100940005A19EEE1F1E00E94F2170E94F018EDE072
:10095000F0E0AEE1B1E00E94EF190C940A05EEE17F
:10096000F1E00E94F217EEE4F8E30E945A190E94A7
:10097000631910F40C94CE04E2E7F8E30E945A19CC
:10098000EEE1F1E00E94F2170E94F018EDE0F0E0D5
:10099000AEE1B1E00E94EF190C940A05EEE1F1E03E
:1009A0000E94F217E6E7F8E30E945A190E946319C1
:1009B00010F40C94ED04EAE7F8E30E945A19EEE112
:1009C000F1E00E94F2170E94F018EDE0F0E0AEE1D5
:1009D000B1E00E94EF190C940A05EEE1F1E00E94EB
:1009E000F217EEE7F8E30E945A190E94631910F417
:1009F0000C940A05E2E8F8E30E945A19EEE1F1E0EE
:100A00000E94F2170E94F018EDE0F0E0AEE1B1E0D4
:100A10000E94EF19E2E2F1E00E94F217E2E4F8E34B
:100A20000E945A190E94631910F40C942905E6E4F7
:100A3000F8E30E945A19E2E2F1E00E94F2170E94E4
:100A4000F018EDE0F0E0A2E2B1E00E94EF190C94A2
:100A50001F06E2E2F1E00E94F217EAE4F8E30E94E6
:100A60005A190E94631910F40C944805EEE4F8E357
:100A70000E945A19E2E2F1E00E94F2170E94F01877
:100A8000EDE0F0E0A2E2B1E00E94EF190C941F0645
:100A9000E2E2F1E00E94F217E2E5F8E30E945A195F
:100AA0000E94631910F40C946705E6E5F8E30E94D0
:100AB0005A19E2E2F1E00E94F2170E94F018EDE00C
:100AC000F0E0A2E2B1E00E94EF190C941F06E2E20E
:100AD000F1E00E94F217EAE5F8E30E945A190E9439
:100AE000631910F40C948605EEE5F8E30E945A1998
:100AF000E2E2F1E00E94F2170E94F018EDE0F0E06F
:100B0000A2E2B1E00E94EF190C941F06E2E2F1E0CC
:100B10000E94F217E2E6F8E30E945A190E94631954
:100B200010F40C94A505E6E6F8E30E945A19E2E2F7
:100B3000F1E00E94F2170E94F018EDE0F0E0A2E26E
:100B4000B1E00E94EF190C941F06E2E2F1E00E946E
:100B5000F217EAE6F8E30E945A190E94631910F4AA
:100B60000C94C405EEE6F8E30E945A19E2E2F1E0C3
:100B70000E94F2170E94F018EDE0F0E0A2E2B1E06E
:100B80000E94EF190C941F06E2E2F1E00E94F217B6
:100B9000EEE4F8E30E945A190E94631910F40C94D1
:100BA000E305E2E7F8E30E945A19E2E2F1E00E946D
:100BB000F2170E94F018EDE0F0E0A2E2B1E00E942E
:100BC000EF190C941F06E2E2F1E00E94F217E6E74B
:100BD000F8E30E945A190E94631910F40C9402065B
:100BE000EAE7F8E30E945A19E2E2F1E00E94F21704
:100BF0000E94F018EDE0F0E0A2E2B1E00E94EF19EF
:100C00000C941F06E2E2F1E00E94F217EEE7F8E32F
:100C10000E945A190E94631910F40C941F06E2E80E
:100C2000F8E30E945A19E2E2F1E00E94F2170E94F2
:100C3000F018EDE0F0E0A2E2B1E00E94EF19E1E08F
:100C4000F0E00E94FC150E94EA15AEEAB4E0EEE185
:100C5000F1E00E94F2170E94CC160E94DB15EEE82C
:100C6000F9E30E94E315AEEAB4E0E2E2F1E00E94AB
:100C7000F2170E94CC160E94DB15E3E0F0E00E9420
:100C8000FC150E94EA15E6E8F8E30E945A19E2E230
:100C9000F1E00E94F2170E946818EDE0F0E0A2E295
:100CA000B1E00E94EF19E2E2F1E00E94F717EEE1F5
:100CB000F1E00E94F2170E94FF18EDE0F0E0AEE1D3
:100CC000B1E00E94EF19EEE1F1E0AAE1B1E00E948B
:100CD000EF19AEEAB4E0EAE1F1E00E94F2170E94F7
:100CE000CC160E94DB15E2E0F0E00E94FC150C94AB
:100CF000A001A6E1B1E0EEE3F8E30E947D19AEE1C8
:100D0000B1E0EEE3F8E30E947D19A2E2B1E0EEE388
:100D1000F8E30E947D198FE711E00E94F915E0E9E0
:100D2000F9E30E94E3150E943E0A00910B0109308D
:100D300018F011F00C949E060C94A0060C94A001DF
:100D40008FEB11E00E94F915AEEAB4E0EBE0F1E0C0
:100D50000E94A5190E94DB1594E0ABE0B1E00E946F
:100D6000E017EBE0F1E0D080EE24FF2400270E94A2
:100D70001618AEE1B1E00E9448180E943E0AAEEAA1
:100D8000B4E0EBE0F1E00E94A5190E94DB15E2E877
:100D9000F9E30E94E315EBE0F1E0D080EE24FF24BC
:100DA00000270E9416180E944D18EEE1F1E00E9403
:100DB000F2170E94FF18EDE0F0E0AEE1B1E00E9412
:100DC000EF190E943E0AAEEAB4E0EBE0F1E00E94C7
:100DD000A5190E94DB1594E0ABE0B1E00E94E0179A
:100DE000EBE0F1E0D080EE24FF2400270E941618EB
:100DF000A2E2B1E00E9448180E943E0AAEEAB4E0C6
:100E0000EBE0F1E00E94A5190E94DB15EBE0F1E0B8
:100E1000D080EE24FF2400270E9416180E944D184F
:100E2000E2E2F1E00E94F2170E94FF18EDE0F0E02C
:100E3000A2E2B1E00E94EF1994E0ABE0B1E00E94C1
:100E4000E017EEE1F1E00E94F217E2E4F8E30E941D
:100E50005A190E94631910F40C944007E6E4F8E371
:100E60000E945A19EEE1F1E00E94F2170E94F01878
:100E7000EDE0F0E0AEE1B1E00E94EF190C9436082D
:100E8000EEE1F1E00E94F217EAE4F8E30E945A1959
:100E90000E94631910F40C945F07EEE4F8E30E94DB
:100EA0005A19EEE1F1E00E94F2170E94F018EDE00D
:100EB000F0E0AEE1B1E00E94EF190C943608EEE1EB
:100EC000F1E00E94F217E2E5F8E30E945A190E944D
:100ED000631910F40C947E07E6E5F8E30E945A19B2
:100EE000EEE1F1E00E94F2170E94F018EDE0F0E070
:100EF000AEE1B1E00E94EF190C943608EEE1F1E0AA
:100F00000E94F217EAE5F8E30E945A190E94631959
:100F100010F40C949D07EEE5F8E30E945A19EEE1F7
:100F2000F1E00E94F2170E94F018EDE0F0E0AEE16F
:100F3000B1E00E94EF190C943608EEE1F1E00E9456
:100F4000F217E2E6F8E30E945A190E94631910F4BE
:100F50000C94BC07E6E6F8E30E945A19EEE1F1E0D2
:100F60000E94F2170E94F018EDE0F0E0AEE1B1E06F
:100F70000E94EF190C943608EEE1F1E00E94F2179E
:100F8000EAE6F8E30E945A190E94631910F40C94DF
:100F9000DB07EEE6F8E30E945A19EEE1F1E00E9469
:100FA000F2170E94F018EDE0F0E0AEE1B1E00E942F
:100FB000EF190C943608EEE1F1E00E94F217EEE42E
:100FC000F8E30E945A190E94631910F40C94FA076E
:100FD000E2E7F8E30E945A19EEE1F1E00E94F2170D
:100FE0000E94F018EDE0F0E0AEE1B1E00E94EF19F0
:100FF0000C943608EEE1F1E00E94F217E6E7F8E320
:101000000E945A190E94631910F40C941908EAE717
:10101000F8E30E945A19EEE1F1E00E94F2170E94F3
:10102000F018EDE0F0E0AEE1B1E00E94EF190C94B1
:101030003608EEE1F1E00E94F217EEE7F8E30E94D5
:101040005A190E94631910F40C943608E2E8F8E388
:101050000E945A19EEE1F1E00E94F2170E94F01886
:10106000EDE0F0E0AEE1B1E00E94EF19E2E2F1E084
:101070000E94F217E2E4F8E30E945A190E946319F1
:1010800010F40C945508E6E4F8E30E945A19E2E2E1
:10109000F1E00E94F2170E94F018EDE0F0E0A2E209
:1010A000B1E00E94EF190C944B09E2E2F1E00E94DA
:1010B000F217EAE4F8E30E945A190E94631910F447
:1010C0000C947408EEE4F8E30E945A19E2E2F1E0AD
:1010D0000E94F2170E94F018EDE0F0E0A2E2B1E009
:1010E0000E94EF190C944B09E2E2F1E00E94F21722
:1010F000E2E5F8E30E945A190E94631910F40C9477
:101100009308E6E5F8E30E945A19E2E2F1E00E9452
:10111000F2170E94F018EDE0F0E0A2E2B1E00E94C8
:10112000EF190C944B09E2E2F1E00E94F217EAE5B4
:10113000F8E30E945A190E94631910F40C94B20843
:10114000EEE5F8E30E945A19E2E2F1E00E94F2179C
:101150000E94F018EDE0F0E0A2E2B1E00E94EF1989
:101160000C944B09E2E2F1E00E94F217E2E6F8E3A8
:101170000E945A190E94631910F40C94D108E6E6F3
:10118000F8E30E945A19E2E2F1E00E94F2170E948D
:10119000F018EDE0F0E0A2E2B1E00E94EF190C944B
:1011A0004B09E2E2F1E00E94F217EAE6F8E30E945E
:1011B0005A190E94631910F40C94F008EEE6F8E353
:1011C0000E945A19E2E2F1E00E94F2170E94F01820
:1011D000EDE0F0E0A2E2B1E00E94EF190C944B09BF
:1011E000E2E2F1E00E94F217EEE4F8E30E945A19FD
:1011F0000E94631910F40C940F09E2E7F8E30E94CF
:101200005A19E2E2F1E00E94F2170E94F018EDE0B4
:10121000F0E0A2E2B1E00E94EF190C944B09E2E287
:10122000F1E00E94F217E6E7F8E30E945A190E94E3
:10123000631910F40C942E09EAE7F8E30E945A1996
:10124000E2E2F1E00E94F2170E94F018EDE0F0E017
:10125000A2E2B1E00E94EF190C944B09E2E2F1E046
:101260000E94F217EEE7F8E30E945A190E946319F0
:1012700010F40C944B09E2E8F8E30E945A19E2E2F8
:10128000F1E00E94F2170E94F018EDE0F0E0A2E217
:10129000B1E00E94EF19E1E0F0E00E94FC150E942D
:1012A000EA15AEEAB4E0EEE1F1E00E94F2170E9426
:1012B000CC160E94DB15EEE8F9E30E94E315AEEAD6
:1012C000B4E0E2E2F1E00E94F2170E94CC160E9424
:1012D000DB15E3E0F0E00E94FC150E94EA15E6E869
:1012E000F8E30E945A19E2E2F1E00E94F2170E942C
:1012F0006818EDE0F0E0A2E2B1E00E94EF19E2E24E
:10130000F1E00E94F717EEE1F1E00E94F2170E946F
:10131000FF18EDE0F0E0AEE1B1E00E94EF19EEE180
:10132000F1E0A6E1B1E00E94EF19AEEAB4E0E6E137
:10133000F1E00E94F2170E94CC160E94DB15E2E059
:10134000F0E00E94FC150E94EA150E94A9090C9485
:10135000A0018FE711E00E94F915ECE9F9E30E9482
:10136000E3150E943E0A00910B01093018F011F0BC
:101370000C94BC090C94BE090C94A0018FEB11E0F5
:101380000E94F915AEEAB4E0EBE0F1E00E94A51985
:101390000E94DB15ABE0B1E08C91AAE2B1E08D9345
:1013A00088278C9380E080930B010E943E0AAAE27A
:1013B000B1E00D911C914AE050E00E94D017AAE2E2
:1013C000B1E00D931C93AEEAB4E0EBE0F1E00E94D3
:1013D000A5190E94DB15AAE2B1E00D911C91ABE0CA
:1013E000B1E04D915527040F151FAAE2B1E00D930E
:1013F0001C930E943E0AAEEAB4E0EBE0F1E00E94EA
:10140000A5190E94DB1580E080930B01AAE2B1E0F0
:101410000D911C914AE050E00E94D017AAE2B1E081
:101420000D931C93AAE2B1E00D911C91ABE0B1E0E9
:101430004D915527040F151FAAE2B1E00D931C939F
:10144000E6EAF9E30E94E3158FEB11E00E94F9153B
:10145000AEEAB4E0EAE2F1E00E949E190E94DB15D8
:10146000AAE2B1E00D911C914CE350E00E949A1564
:10147000AAE2B1E04D935C930C94A0010E94A201FA
:10148000EAE0FBE2AAE0B1E08C919927ABE0B1E0A1
:101490000E94851908950E949616AFE0B1E00C9362
:1014A00000910F01003110F00C94580A0C944B0A73
:1014B00008958FEB11E00E94F915EEEAF9E30E941E
:1014C000E3150E949616AAE0B1E00C9300910A0180
:1014D000003111F00C946E0A0C94610A08958FEBA0
:1014E00011E00E94F915E0ECF9E30E94E3158FEB9F
:1014F00011E00E94F915089584E00E94C617EA8160
:10150000FB810E94F717EA81FB810E94F2170E947B
:10151000BE18EDE0F0E0A881B9810E94EF19EAE879
:10152000F8E30E945A19E881F9810E94F2170E949B
:10153000FF18EDE0F0E0A881B9810E94EF19E88181
:10154000F9810E94A51BEDE0F0E0A881B9810E941D
:10155000EF19E881F9810E94F717EA81FB810E9467
:10156000F2170E946818EDE0F0E0A881B9810E94AE
:10157000EF19E881F9810E94791BEDE0F0E0A88184
:10158000B9810E94EF19E881F981AC81BD810E9487
:10159000EF1984E0481A80E0580A229608950E94C4
:1015A000EA15ACE3B1E0EEE8F8E30E947D19E4E06F
:1015B000F1E0D080EE24FF2400270E941618A4E357
:1015C000B1E00E944818E3E0F1E0D080EE24FF246F
:1015D00000270E941618A0E4B1E00E944818E0E439
:1015E000F1E00E94F217EEE7F8E30E945A190E9418
:1015F000631981E008F480E08F93E0E4F1E00E9459
:10160000F217E2E9F8E30E945A190E94631981E097
:1016100010F009F080E09F918923882311F40C9445
:10162000230BE2E8F8E30E945A19E0E4F1E00E949B
:10163000F2170E94F018EDE0F0E0A0E4B1E00E94A3
:10164000EF190C94740BE0E4F1E00E94F217E6E766
:10165000F8E30E945A190E94631981E008F480E0BF
:101660008F93E0E4F1E00E94F217E6E9F8E30E94CC
:101670005A190E94631981E010F009F080E09F91EF
:101680008923882311F40C94570BEAE7F8E30E94AE
:101690005A19E0E4F1E00E94F2170E94F018EDE020
:1016A000F0E0A0E4B1E00E94EF190C94740BE0E4C8
:1016B000F1E00E94F217EEE4F8E30E945A190E944A
:1016C000631910F40C94740BE2E7F8E30E945A19C2
:1016D000E0E4F1E00E94F2170E94F018EDE0F0E083
:1016E000A0E4B1E00E94EF19E4E3F1E00E94F217F8
:1016F000E2E9F8E30E945A190E94631918F011F008
:101700000C94840B0C94960BEAE7F8E30E945A19A8
:10171000E4E3F1E00E94F2170E94F018EDE0F0E03F
:10172000A4E3B1E00E94EF190C94C80BE4E3F1E0EC
:101730000E94F217EEE7F8E30E945A190E9463191B
:1017400081E008F480E08F93E4E3F1E00E94F21777
:10175000E2E9F8E30E945A190E94631981E010F04F
:1017600009F080E09F918923882311F40C94C80B21
:10177000E2E8F8E30E945A19E4E3F1E00E94F2176C
:101780000E94F018EDE0F0E0A4E3B1E00E94EF1950
:10179000AEEAB4E0E0E4F1E00E94F2170E94CC1659
:1017A000AEEAB4E00E94D415EEE8F9E30E94DA173D
:1017B0000E94DB15AEEAB4E0E4E3F1E00E94F21728
:1017C0000E94CC160E94DB15E4E0F0E00E94FC15BC
:1017D0000E94EA15E4E3F1E00E94F717EAE9F8E372
:1017E0000E9451190E94BE18EDE0F0E0A0E3B1E0C4
:1017F0000E94EF19EEE9F8E30E945A19E0E3F1E0E4
:101800000E94F2170E946818EDE0F0E0A0E3B1E05A
:101810000E94EF19EEE9F8E30E945A19E4E3F1E0BF
:101820000E94F2170E94FF18EDE0F0E0A4E3B1E09F
:101830000E94EF19EAE7F8E30E945A19E4E3F1E0A5
:101840000E94F2170E946818EDE0F0E0A4E3B1E016
:101850000E94EF19A8E3B1E0E2EAF8E30E947D19E3
:10186000E6E6F8E30E945A19E0E4F1E00E94F2177C
:101870000E94F018EDE0F0E0ACE2B1E00E94EF1958
:10188000ECE2F1E00E94F717E0E3F1E00E94F217CA
:101890000E94FF18EDE0F0E0ACE2B1E00E94EF1929
:1018A000E8E3F1E00E94F717E4E3F1E00E94F217A9
:1018B0000E94BE18EDE0F0E0A8E3B1E00E94EF194D
:1018C000E8E3F1E00E94F717ECE2F1E00E94F21782
:1018D0000E94F018EDE0F0E0ACE2B1E00E94EF19F8
:1018E000ACE4B1E0E6EAF8E30E947D19A4E4B1E0DB
:1018F000EAEAF8E30E947D19A8E4B1E0EEEAF8E331
:101900000E947D19E2EBF8E30E945A19E6E1F1E04A
:101910000E94F2170E946818EDE0F0E0A0E5B1E047
:101920000E94EF19A881B9810D911C91013050E0FE
:10193000150711F00C94CE0CE0E5F1E00E94F717CA
:10194000E2E8F8E30E9451190E94F018EDE0F0E09F
:10195000A4E5B1E00E94EF19EEE6F8E30E945A19FF
:10196000E4E5F1E00E94F2170E946818EDE0F0E073
:10197000A4E5B1E00E94EF19ECE2F1E00E94F71754
:10198000E4E5F1E00E94F2170E94FF18EDE0F0E0BC
:10199000A4E5B1E00E94EF190C94FE0CE0E5F1E043
:1019A0000E94F717E2E7F8E30E9451190E94F0182D
:1019B000EDE0F0E0A4E5B1E00E94EF19EEE6F8E317
:1019C0000E945A19E4E5F1E00E94F2170E9468189B
:1019D000EDE0F0E0A4E5B1E00E94EF19ECE2F1E007
:1019E0000E94F717E4E5F1E00E94F2170E94FF1849
:1019F000EDE0F0E0A4E5B1E00E94EF19E4E5F1E0EC
:101A00000E94F717E6EBF8E30E9451190E94BE18F6
:101A1000EDE0F0E0A8E5B1E00E94EF19EAEBF8E3B1
:101A20000E945A19E8E5F1E00E94F2170E94F018AE
:101A3000EDE0F0E0A8E5B1E00E94EF19E8E4F1E0A4
:101A40000E94F717E8E5F1E00E94F2170E94BE1825
:101A5000EDE0F0E0A0E6B1E00E94EF19E0E6F1E091
:101A60000E94461BEDE0F0E0A0E6B1E00E94EF1915
:101A7000E0E6F1E00E94F717EEEBF8E30E9451195F
:101A80000E94BE18EDE0F0E0A0E6B1E00E94EF1980
:101A9000E8E5F1E00E94F717E2EAF8E30E94511945
:101AA0000E94BE18EDE0F0E0A4E6B1E00E94EF195C
:101AB000E8E4F1E00E94F717E4E6F1E00E94F21793
:101AC0000E94BE18EDE0F0E0A4E6B1E00E94EF193C
:101AD000E4E6F1E00E94461BEDE0F0E0A4E6B1E0B0
:101AE0000E94EF19E2ECF8E30E945A19E4E6F1E0F3
:101AF0000E94F2170E94BE18EDE0F0E0A4E6B1E00B
:101B00000E94EF19E6ECF8E30E945A19E8E5F1E0CB
:101B10000E94F2170E94FF18EDE0F0E0ACE5B1E0A2
:101B20000E94EF19E0E6F1E00E94F717ECE5F1E022
:101B30000E94F2170E94FF18EDE0F0E0ACE5B1E082
:101B40000E94EF19E4E6F1E00E94F717ECE5F1E0FE
:101B50000E94F2170E94FF18EDE0F0E0ACE5B1E062
:101B60000E94EF19ECE5F1E00E94F217EAECF8E3CD
:101B70000E945A190E94631918F011F00C94C20DBA
:101B80000C94D20DEAECF8E30E945A19ECE5F1E06E
:101B90000E94F2170E94F018EDE0F0E0ACE5B1E031
:101BA0000E94EF19ECE5F1E00E94F217EEE3F8E392
:101BB0000E945A190E94631910F00C94EF0DEAEC80
:101BC000F8E30E945A19ECE5F1E00E94F2170E9436
:101BD000FF18EDE0F0E0ACE5B1E00E94EF19E8E4B9
:101BE000F1E00E94F717ECE5F1E00E94F2170E9485
:101BF000BE18EDE0F0E0A0E6B1E00E94EF19E0E6EB
:101C0000F1E00E94691AEDE0F0E0A0E6B1E00E9488
:101C1000EF19E0E6F1E00E94F717EEECF8E30E941E
:101C200051190E94BE18EDE0F0E0A0E6B1E00E947C
:101C3000EF19A0E6B1E0BA93AA93A0E6B1E0BA9397
:101C4000AA930E947C0A2496E0E6F1E00E94F7172E
:101C5000E4E4F1E00E94F2170E94BE18EDE0F0E02B
:101C6000A8E6B1E00E94EF19E8E6F1E00E94F21761
:101C7000EAECF8E30E945A190E94631918F011F077
:101C80000C94440E0C94540EEAECF8E30E945A199A
:101C9000E8E6F1E00E94F2170E94F018EDE0F0E0B3
:101CA000A8E6B1E00E94EF19E8E6F1E00E94F21721
:101CB000EEE3F8E30E945A190E94631910F00C94A5
:101CC000710EEAECF8E30E945A19E8E6F1E00E948E
:101CD000F2170E94FF18EDE0F0E0A8E6B1E00E94E4
:101CE000EF19E2EDF8E30E945A19ECE5F1E00E94E9
:101CF000F2170E946818EDE0F0E0A0E6B1E00E9463
:101D0000EF19E6EDF8E30E945A19E0E6F1E00E94CF
:101D1000F2170E94F018EDE0F0E0A0E6B1E00E94BA
:101D2000EF19E0E6F1E00E949B1BEDE0F0E0A0E699
:101D3000B1E00E94EF19E2EDF8E30E945A19E0E6E3
:101D4000F1E00E94F2170E94BE18EDE0F0E0ACE670
:101D5000B1E00E94EF19E2EDF8E30E945A19E8E6BB
:101D6000F1E00E94F2170E946818EDE0F0E0A0E6B2
:101D7000B1E00E94EF19E6EDF8E30E945A19E0E69F
:101D8000F1E00E94F2170E94F018EDE0F0E0A0E60A
:101D9000B1E00E94EF19E0E6F1E00E949B1BEDE04C
:101DA000F0E0A0E6B1E00E94EF19E0E6F1E00E9469
:101DB000F717E2EDF8E30E9451190E94BE18EDE01A
:101DC000F0E0A0E7B1E00E94EF19ECE6F1E00E943C
:101DD000F717E8E6F1E00E94F2170E94FF18EDE025
:101DE000F0E0A8E6B1E00E94EF19E0E7F1E00E9420
:101DF000F717E8E6F1E00E94F2170E94F018EDE014
:101E0000F0E0A8E6B1E00E94EF19E2EBF8E30E94EF
:101E10005A19E8E6F1E00E94F2170E946818EDE016
:101E2000F0E0A8E6B1E00E94EF19E8E4F1E00E94DA
:101E3000F717ECE5F1E00E94F2170E94BE18EDE002
:101E4000F0E0A0E6B1E00E94EF19E0E6F1E00E94C8
:101E5000461BEDE0F0E0A0E6B1E00E94EF19E0E6FD
:101E6000F1E00E94F717EAEDF8E30E9451190E9491
:101E7000BE18EDE0F0E0A4E7B1E00E94EF19E4E75E
:101E8000F1E00E94791BEDE0F0E0A8E7B1E00E94EC
:101E9000EF19E8E7F1E00E94351AEDE0F0E0A8E77D
:101EA000B1E00E94EF19E8E4F1E00E94F717ECE4DA
:101EB000F1E00E94F2170E94BE18EDE0F0E0ACE7FE
:101EC000B1E00E94EF19ECE7F1E00E94351AEDE075
:101ED000F0E0ACE7B1E00E94EF19E8E4F1E00E9425
:101EE000F717EAE1F1E00E94F2170E94BE18EDE058
:101EF000F0E0A4E6B1E00E94EF19E4E6F1E00E9410
:101F0000461BEDE0F0E0A4E6B1E00E94EF19E4E743
:101F1000F1E00E94F717E4E6F1E00E94F2170E9458
:101F2000BE18EDE0F0E0A4E6B1E00E94EF19E8E4AD
:101F3000F1E00E94F717EAE1F1E00E94F2170E9437
:101F4000BE18EDE0F0E0A0E6B1E00E94EF19E0E697
:101F5000F1E00E94351AEDE0F0E0A0E6B1E00E9469
:101F6000EF19E0E6F1E00E94F717E8E7F1E00E94E0
:101F7000F2170E94BE18EDE0F0E0A0E6B1E00E948A
:101F8000EF19E0E6F1E00E94F717E4E6F1E00E94C5
:101F9000F2170E946818EDE0F0E0A4E6B1E00E94BC
:101FA000EF19E4E6F1E00E94F717ECE7F1E00E9498
:101FB000F2170E94F018EDE0F0E0ACE7B1E00E940B
:101FC000EF19ECE7F1E00E94951BEDE0F0E0A0E6F0
:101FD000B1E00E94EF190E94EA15A881B9810D9124
:101FE0001C91013050E0150711F00C942310ECE720
:101FF000F1E00E94951BEDE0F0E0A0E8B1E00E9466
:10200000EF19E4E4F1E00E94F717E0E8F1E00E9444
:10201000F2170E94BE18EDE0F0E0A0E8B1E00E94E7
:10202000EF19E0E8F1E00E94F717EAECF8E30E940C
:1020300051190E94F018EDE0F0E0A0E8B1E00E9434
:10204000EF190C943D10ECE7F1E00E94951BEDE0D8
:10205000F0E0A0E8B1E00E94EF19E0E8F1E00E94B2
:10206000F717E4E4F1E00E94F2170E94BE18EDE0D9
:10207000F0E0A0E8B1E00E94EF19E2EBF8E30E9483
:102080005A19E0E8F1E00E94F2170E946818EDE0AA
:10209000F0E0A0E8B1E00E94EF19A4E8B1E0EEE3BF
:1020A000F8E30E947D19E0E8F1E00E94F717E4E808
:1020B000F1E00E94F2170E94FF18EDE0F0E0A4E8C2
:1020C000B1E00E94EF19E8E6F1E00E94F717E4E8BA
:1020D000F1E00E94F2170E94FF18EDE0F0E0A4E8A2
:1020E000B1E00E94EF19E4E5F1E00E94F717EEED90
:1020F000F8E30E9451190E94BE18EDE0F0E0A0E65E
:10210000B1E00E94EF19E0E6F1E00E94F717E4E881
:10211000F1E00E94F2170E94F018EDE0F0E0A4E870
:10212000B1E00E94EF19E2EEF8E30E945A19E4E8E8
:10213000F1E00E94F2170E94F018EDE0F0E0A4E850
:10214000B1E00E94EF19E8E6F1E00E94F717E0E83D
:10215000F1E00E94F2170E94FF18EDE0F0E0A4E623
:10216000B1E00E94EF19E0E5F1E00E94F717E4E822
:10217000F1E00E94F2170E94F018EDE0F0E0A8E80C
:10218000B1E00E94EF19EAE2F1E0D190E0808FEF38
:10219000E7FE8827F82E082F0E9416180E944D1877
:1021A000E8E8F1E00E94F2170E94FF18EDE0F0E08D
:1021B000A8E8B1E00E94EF19E8E8F1E00E94F21708
:1021C000EEE6F8E30E945A190E94631918F011F024
:1021D0000C94EC100C94FC10EEE6F8E30E945A19F3
:1021E000E8E8F1E00E94F2170E94F018EDE0F0E05C
:1021F000A8E8B1E00E94EF19E8E8F1E00E94F217C8
:10220000EEE3F8E30E945A190E94631910F00C944F
:102210001911EEE6F8E30E945A19E8E8F1E00E948D
:10222000F2170E94FF18EDE0F0E0A8E8B1E00E948C
:10223000EF19E8E8F1E0AA81BB810E94EF19089547
:102240000E94EA15E0E0F1E0D080EE24FF240027B0
:102250000E941618ACE8B1E00E944818E1E0F1E0F5
:10226000D080EE24FF2400270E941618A0E9B1E0D8
:102270000E944818ECE8F1E00E94F217E6EEF8E35D
:102280000E945A190E94631910F40C945911EAE73C
:10229000F8E30E945A19ECE8F1E00E94F2170E945C
:1022A000F018EDE0F0E0ACE8B1E00E94EF190C941A
:1022B0008A11ECE8F1E00E94F217EAEEF8E30E94DE
:1022C0005A190E94631981E008F480E08F93ECE8CA
:1022D000F1E00E94F217E6EEF8E30E945A190E941C
:1022E000631981E008F080E09F918923882311F42D
:1022F0000C948A11E2E8F8E30E945A19ECE8F1E044
:102300000E94F2170E94F018EDE0F0E0ACE8B1E0B6
:102310000E94EF190E94EA15E0E9F1E00E94F2172D
:10232000E2E6F8E30E945A190E94631910F40C9433
:10233000AB11E6E6F8E30E945A19E0E9F1E00E94E9
:10234000F2170E94F018EDE0F0E0A0E9B1E00E9481
:10235000EF190C947512E0E9F1E00E94F217EAE639
:10236000F8E30E945A190E94631981E008F480E0A2
:102370008F93E0E9F1E00E94F217EEEEF8E30E949D
:102380005A190E94631981E008F080E09F91892327
:10239000882311F40C94DE11EEE6F8E30E945A193A
:1023A000E0E9F1E00E94F2170E94F018EDE0F0E0A1
:1023B000A0E9B1E00E94EF190C947512E0E9F1E098
:1023C0000E94F217EEE4F8E30E945A190E94631982
:1023D00081E008F480E08F93E0E9F1E00E94F217D9
:1023E000E2EFF8E30E945A190E94631981E008F0B5
:1023F00080E09F918923882311F40C941112E2E765
:10240000F8E30E945A19E0E9F1E00E94F2170E94F5
:10241000F018EDE0F0E0A0E9B1E00E94EF190C94B3
:102420007512E0E9F1E00E94F217E6E7F8E30E9496
:102430005A190E94631981E008F480E08F93E0E963
:10244000F1E00E94F217E6E5F8E30E945A190E94B3
:10245000631981E008F080E09F918923882311F4BB
:102460000C944412EAE7F8E30E945A19E0E9F1E01B
:102470000E94F2170E94F018EDE0F0E0A0E9B1E050
:102480000E94EF190C947512E0E9F1E00E94F21736
:10249000EEE7F8E30E945A190E94631981E008F4FC
:1024A00080E08F93E0E9F1E00E94F217E6EEF8E3B6
:1024B0000E945A190E94631981E008F080E09F9100
:1024C0008923882311F40C947512E2E8F8E30E9442
:1024D0005A19E0E9F1E00E94F2170E94F018EDE0CD
:1024E000F0E0A0E9B1E00E94EF19E6E8F8E30E940D
:1024F0005A19ECE8F1E00E94F2170E94BE18EDE0D4
:10250000F0E0A4E9B1E00E94EF19E0E9F1E00E94F7
:10251000F717E4E9F1E00E94F2170E94FF18EDE0DE
:10252000F0E0A4E9B1E00E94EF19E2EDF9E30E94C6
:10253000E315AEEAB4E0E4E9F1E00E94F2170E948C
:10254000CC160E94DB15E2E0F0E00E94FC150E9430
:10255000EA1581E090E0ACE9B1E08D939C93AEE99F
:10256000B1E0BA93AA93ACE9B1E0BA93AA930E94FE
:10257000CF0A2496EEE9F1E0A2EAB1E00E94EF1959
:10258000E6EDF8E30E945A19E2EAF1E00E94F21740
:102590000E94F018EDE0F0E0A2EAB1E00E94EF192D
:1025A000E2EAF1E00E949B1BEDE0F0E0A2EAB1E07C
:1025B0000E94EF19E2EAF1E00E94F717EEE9F1E07C
:1025C0000E94F2170E94F018EDE0F0E0A6EAB1E0F8
:1025D0000E94EF19E6E8F8E30E945A19E6EAF1E0F2
:1025E0000E94F2170E94BE18EDE0F0E0A6EAB1E00A
:1025F0000E94EF19E6EAF1E00E949B1BEDE0F0E09B
:10260000A6EAB1E00E94EF190E94EA1580E090E08E
:10261000ACE9B1E08D939C93AAEAB1E0BA93AA9396
:10262000ACE9B1E0BA93AA930E94CF0A2496EAEAF1
:10263000F1E0AEEAB1E00E94EF19E6EDF8E30E94A6
:102640005A19EEEAF1E00E94F2170E94F018EDE04C
:10265000F0E0AEEAB1E00E94EF19EEEAF1E00E948C
:102660009B1BEDE0F0E0AEEAB1E00E94EF19EEEA6C
:10267000F1E00E94F717EAEAF1E00E94F2170E94E7
:10268000F018EDE0F0E0A2EBB1E00E94EF19E6E80F
:10269000F8E30E945A19E2EBF1E00E94F2170E945F
:1026A000BE18EDE0F0E0A2EBB1E00E94EF19E2EB22
:1026B000F1E00E949B1BEDE0F0E0A2EBB1E00E9494
:1026C000EF19E6E8F8E30E945A19EEE9F1E00E94FA
:1026D000F2170E94BE18EDE0F0E0AEE9B1E00E9412
:1026E000EF19E6E8F8E30E945A19EAEAF1E00E94DD
:1026F000F2170E94BE18EDE0F0E0AAEAB1E00E94F5
:10270000EF19EEE9F1E00E94F717EAEAF1E00E9422
:10271000F2170E94F018EDE0F0E0A8E9B1E00E94A5
:10272000EF19AEEAB4E0E8E9F1E00E94F2170E9486
:10273000CC160E94DB15E2E0F0E00E94FC150E943E
:10274000EA15EEE9F1E00E94F717E4E9F1E00E94F2
:10275000F2170E94F018EDE0F0E0A4E9B1E00E9469
:10276000EF19E6EFF8E30E945A19E8E9F1E00E9458
:10277000F2170E946818EDE0F0E0A8E9B1E00E94CD
:10278000EF19E8E9F1E00E94F717E4E9F1E00E94AF
:10279000F2170E946818EDE0F0E0A8E9B1E00E94AD
:1027A000EF19E6EDF8E30E945A19E8E9F1E00E941A
:1027B000F2170E94F018EDE0F0E0A8E9B1E00E9405
:1027C000EF19E8E9F1E00E949B1BEDE0F0E0A8E9D9
:1027D000B1E00E94EF19AEEAB4E0E6EDF9E30E9441
:1027E000DA17AEEAB4E00E94D415E8E9F1E00E94FD
:1027F000F2170E94CC160E94DB15E2E0F0E00E9486
:10280000FC15429AEAE8F8E30E945A19E8E9F1E077
:102810000E94F2170E94F018EDE0F0E0A8E9B1E0A4
:102820000E94EF19E8E9F1E00E94F217EEE3F8E305
:102830000E945A190E94631981E008F080E08F938A
:10284000E8E9F1E00E94F217EAEFF8E30E945A1972
:102850000E94631980E010F009F081E09F91892BBC
:10286000882311F40C9448140E94EA15ECEDF9E366
:102870000E94E3158FEB11E00E94F915ECEEF9E3ED
:102880000E94E315E3E0F0E00E94FC150E94EA15C7
:10289000E8E9F1E00E94F217EEE3F8E30E945A192A
:1028A0000E94631911F00C945D1442984498439867
:1028B0004598E5E0F0E00E94FC15E8E9F1E00E94AF
:1028C000F217EAE8F8E30E945A190E94631911F01E
:1028D0000C947214429844984398459AE5E0F0E0CD
:1028E0000E94FC15E8E9F1E00E94F217E2EAF8E341
:1028F0000E945A190E94631911F00C94871442988F
:102900004498439A4598E5E0F0E00E94FC15E8E918
:10291000F1E00E94F217EEEFF8E30E945A190E94CC
:10292000631911F00C949C1442984498439A459A68
:10293000E5E0F0E00E94FC15E8E9F1E00E94F21702
:10294000E2E0F9E30E945A190E94631911F00C9415
:10295000B1144298449A4398459AE5E0F0E00E9409
:10296000FC15E8E9F1E00E94F217E6E0F9E30E94C5
:102970005A190E94631911F00C94C6144298449A93
:102980004398459AE5E0F0E00E94FC15E8E9F1E0A3
:102990000E94F217E2E8F8E30E945A190E946319B4
:1029A00011F00C94DB144298449A439A4598E5E060
:1029B000F0E00E94FC15E8E9F1E00E94F217EAEF6E
:1029C000F8E30E945A190E94631911F00C94F01454
:1029D0004298449A439A459AE5E0F0E00E94FC153B
:1029E00008950E94CC1B10EA0E94E51B17E00E948C
:1029F000E51B19E90E94E51B1AE00E94E51B0E94F5
:102A0000DC1B0E94CC1B10EA0E94E51B10E00E9418
:102A1000E51B14E00E94E51B0E94DC1B8AE090E0AD
:102A20000E94BD1608950E94EA158CE00E9453167C
:102A3000EAEFF9E30E94E3150E94FE018FEB11E03B
:102A40000E94F915ECE0FAE30E94E3150895F8946A
:102A5000FFCF0E94CC1B10EA0E94E51B12E00E94EF
:102A6000E51B0E94CC1B11EA0E94E51B0E94041C7E
:102A7000A2E0B1E01C930E94041CA1E0B1E01C9311
:102A80000E94041CA0E0B1E01C930E94041CA6E07C
:102A9000B1E01C930E94021CA7E0B1E01C930E94CD
:102AA000DC1B08950E94CC1B10EA0E94E51B10E07D
:102AB0000E94E51B18E00E94E51B0E94DC1B0E949F
:102AC000CC1B10EA0E94E51B12E00E94E51BAC81C2
:102AD000BD811C910E94E51BAE81BF811C910E94AB
:102AE000E51BA885B9851C910E94E51BAA81BB81C5
:102AF0001C910E94E51BA881B9811C910E94E51BD5
:102B00000E94DC1B0895F894FFCF0D0C0B0A0E09F0
:102B10000603000805020F070401481A590A089520
:102B2000481A8827580A089509D00E94D01700FC37
:102B300010D0089503D01ED001F8F9CF0024E894F6
:102B400057FF02C009D0689400F80BD010F8012498
:102B5000089502D009D00895509540954F5F5F4F7A
:102B60000895E89417FF0895009510950F5F1F4F83
:102B700068940895352F242FE894452B11F4689418
:102B80000895512F402F0027112780E1440F551F32
:102B9000001F111F021B130B416018F4020F131FBB
:102BA0004E7F8A9599F708958F938D918823E9F741
:102BB00011978F910895AEEAB4E08D91882311F0BA
:102BC0006CD0FBCF08950E944D19802D11F065D077
:102BD000FACF089581E067D015D080E864C08FE710
:102BE000213039F08FEB223021F08FE8233009F0CB
:102BF0008FEC810F0C94531688EE93E0BED0319782
:102C0000D9F7089583E09927B8C08AEF90E00E9431
:102C1000BD16239A229A219A209A249A259A2D98B1
:102C200085E090E00E94BD162C982B982A98299A4E
:102C3000289A2C9AEF93FF93E4ECF0E00E9486161A
:102C4000FF91EF912C9896D02C9AEF93FF93E4ECA0
:102C5000F0E00E948616FF91EF912C988BD02C9A71
:102C6000EF93FF93E4ECF0E00E948616FF91EF9162
:102C70002C9880D028982C9AEF93FF93E4ECF0E006
:102C80000E948616FF91EF912C9874D088E20BD0A9
:102C90008EE009D086E007D008952D9A829505D060
:102CA00004D068D008952D98F9CF859510F4289A0E
:102CB00001C02898859510F4299A01C02998859516
:102CC00010F42A9A01C02A98859510F42B9A01C015
:102CD0002B982C9AEF93FF93E4ECF0E00E94861679
:102CE000FF91EF912C980895982F82958F70805DB9
:102CF0008D939F70905D9D9388278C9308954AE0F3
:102D0000082F0E94F5190295802B08953197F1F74D
:102D10000895AE2FBF2F11974A2F4B2BE1F708953F
:102D2000689462F80895E89462F8089500E18FEFDE
:102D30008BB98FE08AB980EF8BB984E18A95F1F77E
:102D40004C9B00E04D9B04E04E9B08E04F9B0CE049
:102D500080EF8AB98FE08BB984E18A95F1F78827F3
:102D6000489B80E0499B81E04A9B82E04B9B83E04B
:102D7000080F089581E090E000C0EF93FF93EE27E5
:102D8000E82BE92B31F0E0EDF7E03197F1F701970F
:102D9000D1F7FF91EF9108958DE207FD8D938F2D6F
:102DA000881F802F881F8F57082F6894F7F8802F6F
:102DB00087FF15C080958395082F80E38D938EE261
:102DC0008D93802F815228F080E38D9399279C93D7
:102DD000089544270A95802F09F196D01FC080528C
:102DE00030F09EE49D9381E48D939D93EFCF442733
:102DF000DF92EF92FF920F938FE1801B11F0082F6B
:102E000083D089D09EE29D930F91FF90EF90DF9049
:102E100044270395003209F4D7CF2BD03F93E8EA3B
:102E2000FEE238E12F2D1E2D0D2DFF24EE24DD2492
:102E30004427000F111F221FA8F42F923F920E94D7
:102E40004D19102C0E944D19202C0E944D19302C28
:102E50000E944D193197410DD21CE31CF01C3F908C
:102E60002F9001C0339631963A9519F73F9107D0CC
:102E7000AFCFDD0CEE1CFF1C0A95D9F70895002793
:102E800019E058D08F93802B11F0039501C08F91DA
:102E90001A95B9F7802F882309F496CF8F91805D1A
:102EA0008D930A95D9F792CF0065CD1D80B2E60EBD
:102EB00040597307A0ACB90350D6DC01286BEE0073
:102EC00094357700CA9A3B0065CD1D00B2E60E002E
:102ED00059730700ACB90300D6DC01006BEE0000AB
:102EE000357700009A3B0000CD1D0000E60E000083
:102EF00073070000B9030000DC010000EE000000D1
:102F0000770000003B000000F694E794D7944795C3
:102F10000A95D1F7089500270DD08F9303958F2D33
:102F20008E298D29842BC1F78F91805D8D930A9511
:102F3000D9F74CCF1F930F93002710E2440FDD1CED
:102F4000EE1CFF1C001F802F9AE0890B10F0082F49
:102F500043951A9599F7802F0F911F91089520930B
:102F6000B2013093B3014093B4015093B501089579
:102F70002091B2013091B3014091B4015091B5015B
:102F800008955A924A92480E591E08955A924A92AA
:102F9000480E8827581E0895480E8827581E089501
:102FA0000F92B801469F8001479F100D569F100D4C
:102FB0000F9008950E944D190D920020D9F70895A1
:102FC000903029F08C91880F9A95E9F78C930895A9
:102FD000D094E094F09491E0D90E9927E91EF91E5F
:102FE00010950895D190E190F1900191089521916B
:102FF0003191419151910895102F90E8FF0C001FDD
:103000000927990FF7941078652F90E8440F551F02
:103010005927990F4795607800380895FF0C90E87C
:103020009027110F9795F794092F0895102FBD2C15
:10303000DE2CEF2CF02E11234AF4B094D094E094BF
:10304000F0949FEFB91AD90AE90AF90A0EE1FF20B4
:1030500039F4FE2CED2CDB2CBB240850C2F76CC0DD
:1030600032F00A95BB0CDD1CEE1CFF1CF9CF0E9450
:103070003A18D4CFB7FE089590E8B91611F4D0FEEF
:1030800008959FEFD91AE90AF90A09F403950895FA
:10309000DD92ED92FD920C930895502F2D2D3E2D33
:1030A0004F2D612F08952DEC3CEC4CEC5DE3662731
:1030B0000FC098DFF2DFDD24EE2490E8F92E0FE355
:1030C00007C095DF05C02227332740E251E4662779
:1030D000552351F1002381F18FDF71F1162700583C
:1030E00050580894050B18F407FD03C025C007FDD0
:1030F00023C0469537952795F694E794D79422D028
:10310000FF202AF0DD0CEE1CFF1C015073F09D2DFA
:10311000969548F0DD203AF4EE202AF491E0D90E9D
:103120009927E91EF91E7ACF07C09FE7092FF92AD0
:103130009FEFD92EE92E0895DD24EE24FF240027E9
:10314000112708959F929924AA24BB2488E1D216BE
:10315000E306F40628F0D21AE30AF40A089401C040
:103160008894991CAA1CBB1CDD0CEE1CFF1C8A95C4
:1031700071F7D92CEA2CFB2C9F9008953DDFE1F2EA
:103180005038D1F21627005850580894051F12F4F1
:1031900018F4CBCF08F0D0CF0BD0FF202AF0BB0C17
:1031A000DD1CEE1CFF1C3ACF0F5F0BF4BECF36CFF9
:1031B0009F929924AA24BB24992788E1990CAA1CE0
:1031C000BB1CDD1CEE1CFF1C30F4920EA31EB41EB3
:1031D000D91EE91EF91E8A9589F79F90089507DF89
:1031E0000BDF503829F090E869270CC00AF045D071
:1031F00015CF5FE322273327442701C0F8DEFCDE2A
:103200005038B1F3003899F3902F951B8BF312F4DB
:1032100034D0FACF983118F022273327442798303A
:1032200028F0232F342F44279850F9CF992329F0E1
:103230004695379527959A95D9F7912F962742F07D
:1032400014D0B0F6F794E794D7940F5F8BF66DCF58
:1032500010D051F008F4BCDEFF2052F2DD0CEE1C61
:10326000FF1C0150CBF761CF67CFD20EE31EF41ED7
:103270000895D21AE30AF40A0895DF92EF92FF92BA
:103280000F931F93D22EE32EF42E052F162F6F913E
:103290005F914F913F912F910895C89531960020ED
:1032A0000895FBDFD02CF9DFE02CF7DFF02CF5DF01
:1032B000002D0895F2DF202DF0DF302DEEDF402DC0
:1032C000ECDF502D089507FB00680EF40F7757FBD5
:1032D00050680EF45F7707FD02C057FF05C0D21695
:1032E000E306F406050708952D153E054F05500722
:1032F000089591E005C092E003C094E001C098E019
:10330000CCDF0D929A95E1F70895E80FF91FF1CF00
:10331000000F111F221F331F08950095109520954F
:1033200030950F5F1F4F2F4F3F4F08950191108130
:103330000EC001911191219130810BC0019110813A
:1033400017FF05C03FEF2FEF04C000811127222790
:10335000332737FF03C0E1DF8DE28D93CF93DF93F7
:10336000CF92DF92EF92AA24BB24CC24DD24EE245A
:1033700040E2CAE0DD2755E093E38881890F87FDAD
:103380009F7083FD907F891B89935A95A9F7C0DFB1
:10339000AA1CBB1CCC1CDD1CEE1C4A9551F7E89402
:1033A000EFE0FF2782910ED0EB30E0F71EF068943B
:1033B0008A2D0CD088278D93EF90DF90CF90DF91EE
:1033C000CF910895982F829501D0892F8F70805DBD
:1033D00026F0803309F4089568948D93089594E05D
:1033E00081918D939A95E1F70895FF93881BF9E0F9
:1033F000001FFA9511F4FF910895881F841B18F49B
:10340000840F8894F5CF0894F3CF88E00FB6F89432
:103410005A924A92E42DF52DA42DB52D480E8827F9
:10342000581E0FBE08950FB6F894499059900FBEDC
:103430000895D8DDE1DD0395AAF087E1DD0CEE1CEF
:10344000FF1C8A9589F00A95CAF7FF205AF00024DC
:103450000D280E280F28002039F00A95DD0CEE1CEF
:10346000FF1CDAF70A95DACD67CEBCDD85E0CEDF4A
:103470000F7723E839EF42E25EE380DEDBDF08DE30
:10348000139772D08A3F40F000688D3F18F4B1DE88
:1034900080E803C01BD1B3DE88278483FEDD6EDEA7
:1034A000F7DD139729EA3EE64CE952EC67DE22E3AA
:1034B00032E541E852E4E6D022ED32EE4DE951EC3E
:1034C000E1D020E93FEF4FE75FE399DE84810827F1
:1034D000AACF88DD89E09ADF23E839EF42EA5EE38C
:1034E0004DDEA8DF41D0902F907890870F778A3FEC
:1034F00050F08D3F28F49160908700687ADE03C019
:10350000E5D050687CDE8085807808271496C0DD81
:103510001797C3DD33DEBCDD13972DE334ED4EE8A2
:1035200050ECB0D025E13EED46E85FE368DEB5DD66
:10353000349658DD3897CCDD1496AADD179752DD06
:10354000349724E536E748E450EC18DE20E739EDFF
:1035500043E550E454DE34964ADD38970FDE80852B
:10356000879508F4A7DD5FCF802F9F2D991F881FB7
:10357000991F881F089536DD89E048DF802F9F2D31
:10358000990F881F8F3718F095DD81E001C080E02A
:10359000808714967DDD179780DDF0DD79DD139748
:1035A00020E430EE4EE65DE3E9DD2EE432EB43E469
:1035B0005FE368D02227332740E85FE320DE6DDD3C
:1035C000349610DD389784DD149662DD17970ADD96
:1035D000349725E038EF4CED5EE3D0DD222733272A
:1035E00040E85FE30CDE349602DD3897C7DD808566
:1035F000879550F42BED3FE049EC5FE3802F807816
:10360000006808275827FBDD0ECFECDC80E003C004
:10361000E9DC802F8078882321F0DF92EF92FF92FF
:103620000F938F93E9DC802F839512F485DD1BC007
:1036300080958A95885E0AF415C088501AF40CD0DB
:10364000D92210C0DD2488501AF406D0E9220AC01D
:10365000EE2402D0F92206C09FEF8770990F8A9559
:10366000EAF70895DBDC8F918823D9F35F914F91BE
:103670003F912F910F9327DE0F9199F390F326D06E
:103680005068BDCDBCDDB3DC349778CDABDC002316
:1036900031F02BED3FE049EC5FEBB1DDE7CE4CCDF7
:1036A000A1DC802FFF0C001F901728F4091B881F36
:1036B0000795F794089540CD5FE304C050E449E4D2
:1036C00002C050E449EC3FE02BED08955FE340E891
:1036D0003327222708950FE305C000E489E4F82E7C
:1036E00003C000E489ECF82E8FE0E82E8BEDD82E95
:1036F000089578DC902F0F77E9DFE5DD90F4092F4E
:10370000DF92EF92FF920F93C8DC38DD0068DEDFB6
:1037100076DD1CD0C2DC0F91FF90EF90DF90D8DCFB
:103720002BCFD9DF9078092B08955CDCE3DF80E8AC
:103730000827C2DF64CD56DC0F930F775ADD69DFAF
:103740008F918078082B0895F7CC4CDC0023E2F3AE
:10375000D9F388E05BDE9CDC1196FF0C001F8FE73D
:10376000080F0795F7940695F79483E08F9395DCFF
:103770008FDC139737DCACDC3ADC389740DD91E026
:1037800090DF8F918A9511F08F93F1CF4CCE4098B6
:103790004198389839980895399A389803D03998CB
:1037A00001D0389A00000000000000000000000076
:1037B0000000000000000895399A389AF3DF399824
:1037C000319BFECFEFDF3898EDCF0894111F01C079
:1037D000110F69F0399A18F40000389802C0389A2D
:1037E00000C0E0DF3998319BFECFDCDFF1CF399AA2
:1037F0003898D8DF3998319BFECFE8943099689497
:1038000062F8D0CF089401C08894331F11E0399A30
:103810003898C8DF3998319BFECFC4DF889430993F
:103820000894111FA0F7399A379510F4389801C001
:10383000389AB8DF3998319BFECFB4DF0895000085
:103840000000000010430000584200000043000048
:1038500040420000E042000028420000C042000058
:1038600010420000A0420000F04100008042000031
:10387000C0410000904100000042000040410000B3
:1038800080410000C040000070420000803F0040C6
:10389000FC440000C841000024420080894300002D
:1038A000104100000040A6AAB542A34C6542A7E71C
:1038B0008E3C0000704148507C3FFA7E52407D3F74
:1038C000F53F0AD7A33C27518D430000B44374EA67
:1038D0006A3F0000B4420000003F10AFCB3EF792B9
:1038E000863D6DE7D3400000D0410000504100000C
:1038F000944200006842000000410000E0400000E7
:103900004040000080400000A040416E79204B659F
:103910007920666F72204D656E7500004461746594
:103920003A2000002D002D323031380054696D6589
:103930003A2000003A0020200000412D496E4C61E1
:103940007420422D496E4C6F6E670000432D496E06
:1039500054696D6520442D496E44617400005469BA
:103960006D6520482C4D696E2E5365633D30000017
:10397000496E70757420446174652044442F4D4D28
:1039800000002F004C61746974756465200020008C
:103990004C6F6E677469747564652000496E70754C
:1039A0007420555443005554432049533A00202075
:1039B000205072657373204B657921202020000010
:1039C00020202020202020202020202020202020F7
:1039D0000000637420006469663A2000202053755B
:1039E0006E206973206265796F6E6400202020204C
:1039F00020686F72697A6F6E000054657374204C92
:103A0000454420436C6F636B203500005769746830
:0E3A10002053657474696E6754696D6500001B
:00000001FF
